{
  "contractName": "Philosophy0x",
  "abi": [
    {
      "constant": true,
      "inputs": [],
      "name": "philosophyCount",
      "outputs": [
        {
          "name": "",
          "type": "uint256"
        }
      ],
      "payable": false,
      "stateMutability": "view",
      "type": "function",
      "signature": "0xbcf5e794"
    },
    {
      "constant": true,
      "inputs": [
        {
          "name": "",
          "type": "uint256"
        }
      ],
      "name": "philosophyToPhilosopher",
      "outputs": [
        {
          "name": "",
          "type": "address"
        }
      ],
      "payable": false,
      "stateMutability": "view",
      "type": "function",
      "signature": "0xd8fdc874"
    },
    {
      "constant": true,
      "inputs": [
        {
          "name": "",
          "type": "uint256"
        }
      ],
      "name": "philosophy",
      "outputs": [
        {
          "name": "account",
          "type": "address"
        },
        {
          "name": "ipfsHash",
          "type": "string"
        },
        {
          "name": "score",
          "type": "uint256"
        },
        {
          "name": "timestamp",
          "type": "uint256"
        }
      ],
      "payable": false,
      "stateMutability": "view",
      "type": "function",
      "signature": "0xf9f117d9"
    },
    {
      "constant": false,
      "inputs": [
        {
          "name": "_ipfsHash",
          "type": "string"
        }
      ],
      "name": "createPhilosophy",
      "outputs": [],
      "payable": false,
      "stateMutability": "nonpayable",
      "type": "function",
      "signature": "0x48a39ded"
    },
    {
      "constant": true,
      "inputs": [
        {
          "name": "_account",
          "type": "address"
        }
      ],
      "name": "getPhilosopherPhilosophyIds",
      "outputs": [
        {
          "name": "",
          "type": "uint256[]"
        }
      ],
      "payable": false,
      "stateMutability": "view",
      "type": "function",
      "signature": "0xf3b7ab9f"
    },
    {
      "constant": true,
      "inputs": [
        {
          "name": "_philosophyId",
          "type": "uint256"
        }
      ],
      "name": "getPhilosophy",
      "outputs": [
        {
          "name": "",
          "type": "address"
        },
        {
          "name": "",
          "type": "string"
        },
        {
          "name": "",
          "type": "uint256"
        },
        {
          "name": "",
          "type": "uint256"
        }
      ],
      "payable": false,
      "stateMutability": "view",
      "type": "function",
      "signature": "0x6028d6da"
    }
  ],
  "bytecode": "0x608060405234801561001057600080fd5b506109d9806100206000396000f3fe608060405234801561001057600080fd5b506004361061007f576000357c01000000000000000000000000000000000000000000000000000000009004806348a39ded146100845780636028d6da1461013f578063bcf5e79414610227578063d8fdc87414610245578063f3b7ab9f146102b3578063f9f117d91461034c575b600080fd5b61013d6004803603602081101561009a57600080fd5b81019080803590602001906401000000008111156100b757600080fd5b8201836020820111156100c957600080fd5b803590602001918460018302840111640100000000831117156100eb57600080fd5b91908080601f016020809104026020016040519081016040528093929190818152602001838380828437600081840152601f19601f820116905080830192505050505050509192919290505050610434565b005b61016b6004803603602081101561015557600080fd5b81019080803590602001909291905050506105ec565b604051808573ffffffffffffffffffffffffffffffffffffffff1673ffffffffffffffffffffffffffffffffffffffff16815260200180602001848152602001838152602001828103825285818151815260200191508051906020019080838360005b838110156101e95780820151818401526020810190506101ce565b50505050905090810190601f1680156102165780820380516001836020036101000a031916815260200191505b509550505050505060405180910390f35b61022f610741565b6040518082815260200191505060405180910390f35b6102716004803603602081101561025b57600080fd5b8101908080359060200190929190505050610747565b604051808273ffffffffffffffffffffffffffffffffffffffff1673ffffffffffffffffffffffffffffffffffffffff16815260200191505060405180910390f35b6102f5600480360360208110156102c957600080fd5b81019080803573ffffffffffffffffffffffffffffffffffffffff16906020019092919050505061077a565b6040518080602001828103825283818151815260200191508051906020019060200280838360005b8381101561033857808201518184015260208101905061031d565b505050509050019250505060405180910390f35b6103786004803603602081101561036257600080fd5b8101908080359060200190929190505050610811565b604051808573ffffffffffffffffffffffffffffffffffffffff1673ffffffffffffffffffffffffffffffffffffffff16815260200180602001848152602001838152602001828103825285818151815260200191508051906020019080838360005b838110156103f65780820151818401526020810190506103db565b50505050905090810190601f1680156104235780820380516001836020036101000a031916815260200191505b509550505050505060405180910390f35b6000600160006080604051908101604052803373ffffffffffffffffffffffffffffffffffffffff16815260200185815260200160008152602001428152509080600181540180825580915050906001820390600052602060002090600402016000909192909190915060008201518160000160006101000a81548173ffffffffffffffffffffffffffffffffffffffff021916908373ffffffffffffffffffffffffffffffffffffffff1602179055506020820151816001019080519060200190610501929190610908565b5060408201518160020155606082015181600301555050039050600360003373ffffffffffffffffffffffffffffffffffffffff1673ffffffffffffffffffffffffffffffffffffffff168152602001908152602001600020819080600181540180825580915050906001820390600052602060002001600090919290919091505550336002600083815260200190815260200160002060006101000a81548173ffffffffffffffffffffffffffffffffffffffff021916908373ffffffffffffffffffffffffffffffffffffffff1602179055506001600081548092919060010191905055505050565b6000606060008060008581548110151561060257fe5b906000526020600020906004020160000160009054906101000a900473ffffffffffffffffffffffffffffffffffffffff1660008681548110151561064357fe5b906000526020600020906004020160010160008781548110151561066357fe5b90600052602060002090600402016002015460008881548110151561068457fe5b906000526020600020906004020160030154828054600181600116156101000203166002900480601f01602080910402602001604051908101604052809291908181526020018280546001816001161561010002031660029004801561072b5780601f106107005761010080835404028352916020019161072b565b820191906000526020600020905b81548152906001019060200180831161070e57829003601f168201915b5050505050925093509350935093509193509193565b60015481565b60026020528060005260406000206000915054906101000a900473ffffffffffffffffffffffffffffffffffffffff1681565b6060600360008373ffffffffffffffffffffffffffffffffffffffff1673ffffffffffffffffffffffffffffffffffffffff16815260200190815260200160002080548060200260200160405190810160405280929190818152602001828054801561080557602002820191906000526020600020905b8154815260200190600101908083116107f1575b50505050509050919050565b60008181548110151561082057fe5b90600052602060002090600402016000915090508060000160009054906101000a900473ffffffffffffffffffffffffffffffffffffffff1690806001018054600181600116156101000203166002900480601f0160208091040260200160405190810160405280929190818152602001828054600181600116156101000203166002900480156108f25780601f106108c7576101008083540402835291602001916108f2565b820191906000526020600020905b8154815290600101906020018083116108d557829003601f168201915b5050505050908060020154908060030154905084565b828054600181600116156101000203166002900490600052602060002090601f016020900481019282601f1061094957805160ff1916838001178555610977565b82800160010185558215610977579182015b8281111561097657825182559160200191906001019061095b565b5b5090506109849190610988565b5090565b6109aa91905b808211156109a657600081600090555060010161098e565b5090565b9056fea165627a7a72305820dd4a3f0b0a918ce1fb5cc57079106f72d2739aa3551043a23d56546da6320ea30029",
  "source": "pragma solidity >=0.5.0 <0.6.0;\n\ncontract Philosophy0x {\n\n    struct Philosophy {\n        address account;\n        string ipfsHash;\n        uint score;\n        uint timestamp;\n    }\n\n    Philosophy[] public philosophy;\n    uint public philosophyCount;\n\n    mapping (uint => address) public philosophyToPhilosopher;\n    mapping (address => uint[]) private philosopherPhilosophyIds;\n    mapping (uint => uint[]) private philosophyToRevisionList; //TODO\n    \n    function createPhilosophy(string memory _ipfsHash) public {\n        uint id = philosophy.push(Philosophy(msg.sender, _ipfsHash, 0, now)) - 1;\n        philosopherPhilosophyIds[msg.sender].push(id);\n        philosophyToPhilosopher[id] = msg.sender;\n        philosophyCount++;\n    }\n\n    function getPhilosopherPhilosophyIds(address _account) public view returns (uint[] memory) {\n        return (philosopherPhilosophyIds[_account]);\n    }\n    \n    function getPhilosophy(uint _philosophyId) public view returns(address, string memory, uint, uint) {\n        return (philosophy[_philosophyId].account,\n        philosophy[_philosophyId].ipfsHash,\n        philosophy[_philosophyId].score,\n        philosophy[_philosophyId].timestamp);\n    }\n    \n}",
  "sourcePath": "/var/www/html/Philosophy0x/src/ethereum/contracts/Philosophy0x.sol",
  "compiler": {
    "name": "solc",
    "version": "0.5.3+commit.10d17f24.Emscripten.clang"
  },
  "schemaVersion": "3.0.1",
  "updatedAt": "2019-01-28T18:53:43.955Z",
  "devdoc": {
    "methods": {}
  },
  "userdoc": {
    "methods": {}
  }
}