{
  "contractName": "Philosophy0x",
  "abi": [
    {
      "constant": true,
      "inputs": [
        {
          "name": "",
          "type": "uint256"
        }
      ],
      "name": "philosophyRevisions",
      "outputs": [
        {
          "name": "account",
          "type": "address"
        },
        {
          "name": "ipfsHash",
          "type": "string"
        },
        {
          "name": "score",
          "type": "uint256"
        },
        {
          "name": "timestamp",
          "type": "uint256"
        }
      ],
      "payable": false,
      "stateMutability": "view",
      "type": "function",
      "signature": "0x1664b3cd"
    },
    {
      "constant": true,
      "inputs": [
        {
          "name": "",
          "type": "address"
        },
        {
          "name": "",
          "type": "uint256"
        }
      ],
      "name": "philosopherPhilosophyIds",
      "outputs": [
        {
          "name": "",
          "type": "uint256"
        }
      ],
      "payable": false,
      "stateMutability": "view",
      "type": "function",
      "signature": "0xa50cc3bf"
    },
    {
      "constant": true,
      "inputs": [],
      "name": "philosophyCount",
      "outputs": [
        {
          "name": "",
          "type": "uint256"
        }
      ],
      "payable": false,
      "stateMutability": "view",
      "type": "function",
      "signature": "0xbcf5e794"
    },
    {
      "constant": true,
      "inputs": [
        {
          "name": "",
          "type": "uint256"
        }
      ],
      "name": "philosophyToPhilosopher",
      "outputs": [
        {
          "name": "",
          "type": "address"
        }
      ],
      "payable": false,
      "stateMutability": "view",
      "type": "function",
      "signature": "0xd8fdc874"
    },
    {
      "constant": true,
      "inputs": [
        {
          "name": "",
          "type": "uint256"
        },
        {
          "name": "",
          "type": "uint256"
        }
      ],
      "name": "philosophyToRevisionList",
      "outputs": [
        {
          "name": "",
          "type": "uint256"
        }
      ],
      "payable": false,
      "stateMutability": "view",
      "type": "function",
      "signature": "0xf2ac5444"
    },
    {
      "constant": true,
      "inputs": [
        {
          "name": "",
          "type": "uint256"
        }
      ],
      "name": "philosophy",
      "outputs": [
        {
          "name": "account",
          "type": "address"
        },
        {
          "name": "ipfsHash",
          "type": "string"
        },
        {
          "name": "score",
          "type": "uint256"
        },
        {
          "name": "timestamp",
          "type": "uint256"
        }
      ],
      "payable": false,
      "stateMutability": "view",
      "type": "function",
      "signature": "0xf9f117d9"
    },
    {
      "constant": false,
      "inputs": [
        {
          "name": "_ipfsHash",
          "type": "string"
        }
      ],
      "name": "createPhilosophy",
      "outputs": [],
      "payable": false,
      "stateMutability": "nonpayable",
      "type": "function",
      "signature": "0x48a39ded"
    },
    {
      "constant": false,
      "inputs": [
        {
          "name": "_ipfsHash",
          "type": "string"
        },
        {
          "name": "_id",
          "type": "uint256"
        }
      ],
      "name": "revisePhilosophy",
      "outputs": [],
      "payable": false,
      "stateMutability": "nonpayable",
      "type": "function",
      "signature": "0x12f991b8"
    },
    {
      "constant": true,
      "inputs": [
        {
          "name": "_account",
          "type": "address"
        }
      ],
      "name": "getPhilosopherPhilosophyIds",
      "outputs": [
        {
          "name": "",
          "type": "uint256[]"
        }
      ],
      "payable": false,
      "stateMutability": "view",
      "type": "function",
      "signature": "0xf3b7ab9f"
    },
    {
      "constant": true,
      "inputs": [
        {
          "name": "_id",
          "type": "uint256"
        }
      ],
      "name": "getPhilosophyRevisionIds",
      "outputs": [
        {
          "name": "",
          "type": "uint256[]"
        }
      ],
      "payable": false,
      "stateMutability": "view",
      "type": "function",
      "signature": "0xa8815fef"
    },
    {
      "constant": true,
      "inputs": [
        {
          "name": "_philosophyId",
          "type": "uint256"
        }
      ],
      "name": "getPhilosophy",
      "outputs": [
        {
          "name": "",
          "type": "address"
        },
        {
          "name": "",
          "type": "string"
        },
        {
          "name": "",
          "type": "uint256"
        },
        {
          "name": "",
          "type": "uint256"
        }
      ],
      "payable": false,
      "stateMutability": "view",
      "type": "function",
      "signature": "0x6028d6da"
    }
  ],
  "bytecode": "0x608060405234801561001057600080fd5b50611050806100206000396000f3fe608060405234801561001057600080fd5b50600436106100c6576000357c010000000000000000000000000000000000000000000000000000000090048063a8815fef1161008e578063a8815fef1461047d578063bcf5e79414610500578063d8fdc8741461051e578063f2ac54441461058c578063f3b7ab9f146105d8578063f9f117d914610671576100c6565b806312f991b8146100cb5780631664b3cd1461019057806348a39ded146102785780636028d6da14610333578063a50cc3bf1461041b575b600080fd5b61018e600480360360408110156100e157600080fd5b81019080803590602001906401000000008111156100fe57600080fd5b82018360208201111561011057600080fd5b8035906020019184600183028401116401000000008311171561013257600080fd5b91908080601f016020809104026020016040519081016040528093929190818152602001838380828437600081840152601f19601f82011690508083019250505050505050919291929080359060200190929190505050610759565b005b6101bc600480360360208110156101a657600080fd5b81019080803590602001909291905050506108e9565b604051808573ffffffffffffffffffffffffffffffffffffffff1673ffffffffffffffffffffffffffffffffffffffff16815260200180602001848152602001838152602001828103825285818151815260200191508051906020019080838360005b8381101561023a57808201518184015260208101905061021f565b50505050905090810190601f1680156102675780820380516001836020036101000a031916815260200191505b509550505050505060405180910390f35b6103316004803603602081101561028e57600080fd5b81019080803590602001906401000000008111156102ab57600080fd5b8201836020820111156102bd57600080fd5b803590602001918460018302840111640100000000831117156102df57600080fd5b91908080601f016020809104026020016040519081016040528093929190818152602001838380828437600081840152601f19601f8201169050808301925050505050505091929192905050506109e0565b005b61035f6004803603602081101561034957600080fd5b8101908080359060200190929190505050610b98565b604051808573ffffffffffffffffffffffffffffffffffffffff1673ffffffffffffffffffffffffffffffffffffffff16815260200180602001848152602001838152602001828103825285818151815260200191508051906020019080838360005b838110156103dd5780820151818401526020810190506103c2565b50505050905090810190601f16801561040a5780820380516001836020036101000a031916815260200191505b509550505050505060405180910390f35b6104676004803603604081101561043157600080fd5b81019080803573ffffffffffffffffffffffffffffffffffffffff16906020019092919080359060200190929190505050610ced565b6040518082815260200191505060405180910390f35b6104a96004803603602081101561049357600080fd5b8101908080359060200190929190505050610d1d565b6040518080602001828103825283818151815260200191508051906020019060200280838360005b838110156104ec5780820151818401526020810190506104d1565b505050509050019250505060405180910390f35b610508610d88565b6040518082815260200191505060405180910390f35b61054a6004803603602081101561053457600080fd5b8101908080359060200190929190505050610d8e565b604051808273ffffffffffffffffffffffffffffffffffffffff1673ffffffffffffffffffffffffffffffffffffffff16815260200191505060405180910390f35b6105c2600480360360408110156105a257600080fd5b810190808035906020019092919080359060200190929190505050610dc1565b6040518082815260200191505060405180910390f35b61061a600480360360208110156105ee57600080fd5b81019080803573ffffffffffffffffffffffffffffffffffffffff169060200190929190505050610df1565b6040518080602001828103825283818151815260200191508051906020019060200280838360005b8381101561065d578082015181840152602081019050610642565b505050509050019250505060405180910390f35b61069d6004803603602081101561068757600080fd5b8101908080359060200190929190505050610e88565b604051808573ffffffffffffffffffffffffffffffffffffffff1673ffffffffffffffffffffffffffffffffffffffff16815260200180602001848152602001838152602001828103825285818151815260200191508051906020019080838360005b8381101561071b578082015181840152602081019050610700565b50505050905090810190601f1680156107485780820380516001836020036101000a031916815260200191505b509550505050505060405180910390f35b3373ffffffffffffffffffffffffffffffffffffffff166003600083815260200190815260200160002060009054906101000a900473ffffffffffffffffffffffffffffffffffffffff1673ffffffffffffffffffffffffffffffffffffffff1614156108e55760006001806080604051908101604052803373ffffffffffffffffffffffffffffffffffffffff16815260200186815260200160008152602001428152509080600181540180825580915050906001820390600052602060002090600402016000909192909190915060008201518160000160006101000a81548173ffffffffffffffffffffffffffffffffffffffff021916908373ffffffffffffffffffffffffffffffffffffffff160217905550602082015181600101908051906020019061088c929190610f7f565b506040820151816002015560608201518160030155505003905060056000838152602001908152602001600020819080600181540180825580915050906001820390600052602060002001600090919290919091505550505b5050565b6001818154811015156108f857fe5b90600052602060002090600402016000915090508060000160009054906101000a900473ffffffffffffffffffffffffffffffffffffffff1690806001018054600181600116156101000203166002900480601f0160208091040260200160405190810160405280929190818152602001828054600181600116156101000203166002900480156109ca5780601f1061099f576101008083540402835291602001916109ca565b820191906000526020600020905b8154815290600101906020018083116109ad57829003601f168201915b5050505050908060020154908060030154905084565b6000600160006080604051908101604052803373ffffffffffffffffffffffffffffffffffffffff16815260200185815260200160008152602001428152509080600181540180825580915050906001820390600052602060002090600402016000909192909190915060008201518160000160006101000a81548173ffffffffffffffffffffffffffffffffffffffff021916908373ffffffffffffffffffffffffffffffffffffffff1602179055506020820151816001019080519060200190610aad929190610f7f565b5060408201518160020155606082015181600301555050039050600460003373ffffffffffffffffffffffffffffffffffffffff1673ffffffffffffffffffffffffffffffffffffffff168152602001908152602001600020819080600181540180825580915050906001820390600052602060002001600090919290919091505550336003600083815260200190815260200160002060006101000a81548173ffffffffffffffffffffffffffffffffffffffff021916908373ffffffffffffffffffffffffffffffffffffffff1602179055506002600081548092919060010191905055505050565b60006060600080600085815481101515610bae57fe5b906000526020600020906004020160000160009054906101000a900473ffffffffffffffffffffffffffffffffffffffff16600086815481101515610bef57fe5b9060005260206000209060040201600101600087815481101515610c0f57fe5b906000526020600020906004020160020154600088815481101515610c3057fe5b906000526020600020906004020160030154828054600181600116156101000203166002900480601f016020809104026020016040519081016040528092919081815260200182805460018160011615610100020316600290048015610cd75780601f10610cac57610100808354040283529160200191610cd7565b820191906000526020600020905b815481529060010190602001808311610cba57829003601f168201915b5050505050925093509350935093509193509193565b600460205281600052604060002081815481101515610d0857fe5b90600052602060002001600091509150505481565b606060056000838152602001908152602001600020805480602002602001604051908101604052809291908181526020018280548015610d7c57602002820191906000526020600020905b815481526020019060010190808311610d68575b50505050509050919050565b60025481565b60036020528060005260406000206000915054906101000a900473ffffffffffffffffffffffffffffffffffffffff1681565b600560205281600052604060002081815481101515610ddc57fe5b90600052602060002001600091509150505481565b6060600460008373ffffffffffffffffffffffffffffffffffffffff1673ffffffffffffffffffffffffffffffffffffffff168152602001908152602001600020805480602002602001604051908101604052809291908181526020018280548015610e7c57602002820191906000526020600020905b815481526020019060010190808311610e68575b50505050509050919050565b600081815481101515610e9757fe5b90600052602060002090600402016000915090508060000160009054906101000a900473ffffffffffffffffffffffffffffffffffffffff1690806001018054600181600116156101000203166002900480601f016020809104026020016040519081016040528092919081815260200182805460018160011615610100020316600290048015610f695780601f10610f3e57610100808354040283529160200191610f69565b820191906000526020600020905b815481529060010190602001808311610f4c57829003601f168201915b5050505050908060020154908060030154905084565b828054600181600116156101000203166002900490600052602060002090601f016020900481019282601f10610fc057805160ff1916838001178555610fee565b82800160010185558215610fee579182015b82811115610fed578251825591602001919060010190610fd2565b5b509050610ffb9190610fff565b5090565b61102191905b8082111561101d576000816000905550600101611005565b5090565b9056fea165627a7a723058206cb9db09898e81db243c700d8c336ce5396bbb8cae9baa1614b6ce712c06ef300029",
  "source": "pragma solidity >=0.5.0 <0.6.0;\n\ncontract Philosophy0x {\n\n    struct Philosophy {\n        address account;\n        string ipfsHash;\n        uint score;\n        uint timestamp;\n    }\n\n    Philosophy[] public philosophy;\n    Philosophy[] public philosophyRevisions;\n    uint public philosophyCount;\n\n    mapping (uint => address) public philosophyToPhilosopher;\n    mapping (address => uint[]) public philosopherPhilosophyIds;\n    mapping (uint => uint[]) public philosophyToRevisionList;\n    \n    function createPhilosophy(string memory _ipfsHash) public {\n        uint id = philosophy.push(Philosophy(msg.sender, _ipfsHash, 0, now)) - 1; //Test contract - won't use now in production\n        philosopherPhilosophyIds[msg.sender].push(id);\n        philosophyToPhilosopher[id] = msg.sender;\n        philosophyCount++;\n    }\n\n    function revisePhilosophy(string memory _ipfsHash, uint _id) public {\n        if(philosophyToPhilosopher[_id] == msg.sender){\n            uint revisionId = philosophyRevisions.push(Philosophy(msg.sender, _ipfsHash, 0, now)) - 1; //Test contract - won't use now in production\n            philosophyToRevisionList[_id].push(revisionId);\n        }\n    }\n\n    function getPhilosopherPhilosophyIds(address _account) public view returns (uint[] memory) {\n        return (philosopherPhilosophyIds[_account]);\n    }\n\n    function getPhilosophyRevisionIds(uint _id) public view returns (uint[] memory) {\n        return (philosophyToRevisionList[_id]);\n    }\n    \n    function getPhilosophy(uint _philosophyId) public view returns(address, string memory, uint, uint) {\n        return (philosophy[_philosophyId].account,\n        philosophy[_philosophyId].ipfsHash,\n        philosophy[_philosophyId].score,\n        philosophy[_philosophyId].timestamp);\n    }\n    \n}",
  "sourcePath": "/var/www/html/Philosophy0x/src/ethereum/contracts/Philosophy0x.sol",
  "compiler": {
    "name": "solc",
    "version": "0.5.3+commit.10d17f24.Emscripten.clang"
  },
  "schemaVersion": "3.0.1",
  "updatedAt": "2019-01-29T21:59:58.351Z",
  "devdoc": {
    "methods": {}
  },
  "userdoc": {
    "methods": {}
  }
}